{
  "_format": "hh-sol-artifact-1",
  "contractName": "KeanesNFT",
  "sourceName": "contracts/KeanesNFT.sol",
  "abi": [
    {
      "inputs": [],
      "stateMutability": "nonpayable",
      "type": "constructor"
    },
    {
      "anonymous": false,
      "inputs": [
        {
          "indexed": true,
          "internalType": "address",
          "name": "owner",
          "type": "address"
        },
        {
          "indexed": true,
          "internalType": "address",
          "name": "approved",
          "type": "address"
        },
        {
          "indexed": true,
          "internalType": "uint256",
          "name": "tokenId",
          "type": "uint256"
        }
      ],
      "name": "Approval",
      "type": "event"
    },
    {
      "anonymous": false,
      "inputs": [
        {
          "indexed": true,
          "internalType": "address",
          "name": "owner",
          "type": "address"
        },
        {
          "indexed": true,
          "internalType": "address",
          "name": "operator",
          "type": "address"
        },
        {
          "indexed": false,
          "internalType": "bool",
          "name": "approved",
          "type": "bool"
        }
      ],
      "name": "ApprovalForAll",
      "type": "event"
    },
    {
      "anonymous": false,
      "inputs": [
        {
          "indexed": false,
          "internalType": "address",
          "name": "sender",
          "type": "address"
        },
        {
          "indexed": false,
          "internalType": "uint256",
          "name": "tokenId",
          "type": "uint256"
        }
      ],
      "name": "NewEpicNFTMinted",
      "type": "event"
    },
    {
      "anonymous": false,
      "inputs": [
        {
          "indexed": true,
          "internalType": "address",
          "name": "from",
          "type": "address"
        },
        {
          "indexed": true,
          "internalType": "address",
          "name": "to",
          "type": "address"
        },
        {
          "indexed": true,
          "internalType": "uint256",
          "name": "tokenId",
          "type": "uint256"
        }
      ],
      "name": "Transfer",
      "type": "event"
    },
    {
      "inputs": [
        {
          "internalType": "address",
          "name": "to",
          "type": "address"
        },
        {
          "internalType": "uint256",
          "name": "tokenId",
          "type": "uint256"
        }
      ],
      "name": "approve",
      "outputs": [],
      "stateMutability": "nonpayable",
      "type": "function"
    },
    {
      "inputs": [
        {
          "internalType": "address",
          "name": "owner",
          "type": "address"
        }
      ],
      "name": "balanceOf",
      "outputs": [
        {
          "internalType": "uint256",
          "name": "",
          "type": "uint256"
        }
      ],
      "stateMutability": "view",
      "type": "function"
    },
    {
      "inputs": [
        {
          "internalType": "uint256",
          "name": "tokenId",
          "type": "uint256"
        }
      ],
      "name": "getApproved",
      "outputs": [
        {
          "internalType": "address",
          "name": "",
          "type": "address"
        }
      ],
      "stateMutability": "view",
      "type": "function"
    },
    {
      "inputs": [],
      "name": "getTotalNFTsMintedSoFar",
      "outputs": [
        {
          "internalType": "uint256",
          "name": "",
          "type": "uint256"
        }
      ],
      "stateMutability": "view",
      "type": "function"
    },
    {
      "inputs": [
        {
          "internalType": "address",
          "name": "owner",
          "type": "address"
        },
        {
          "internalType": "address",
          "name": "operator",
          "type": "address"
        }
      ],
      "name": "isApprovedForAll",
      "outputs": [
        {
          "internalType": "bool",
          "name": "",
          "type": "bool"
        }
      ],
      "stateMutability": "view",
      "type": "function"
    },
    {
      "inputs": [],
      "name": "makeAnEpicNFT",
      "outputs": [],
      "stateMutability": "nonpayable",
      "type": "function"
    },
    {
      "inputs": [],
      "name": "name",
      "outputs": [
        {
          "internalType": "string",
          "name": "",
          "type": "string"
        }
      ],
      "stateMutability": "view",
      "type": "function"
    },
    {
      "inputs": [
        {
          "internalType": "uint256",
          "name": "tokenId",
          "type": "uint256"
        }
      ],
      "name": "ownerOf",
      "outputs": [
        {
          "internalType": "address",
          "name": "",
          "type": "address"
        }
      ],
      "stateMutability": "view",
      "type": "function"
    },
    {
      "inputs": [
        {
          "internalType": "uint256",
          "name": "tokenId",
          "type": "uint256"
        }
      ],
      "name": "pickRandomColor",
      "outputs": [
        {
          "internalType": "string",
          "name": "",
          "type": "string"
        }
      ],
      "stateMutability": "view",
      "type": "function"
    },
    {
      "inputs": [
        {
          "internalType": "uint256",
          "name": "tokenId",
          "type": "uint256"
        }
      ],
      "name": "pickRandomFirstWord",
      "outputs": [
        {
          "internalType": "string",
          "name": "",
          "type": "string"
        }
      ],
      "stateMutability": "view",
      "type": "function"
    },
    {
      "inputs": [
        {
          "internalType": "uint256",
          "name": "tokenId",
          "type": "uint256"
        }
      ],
      "name": "pickRandomSecondWord",
      "outputs": [
        {
          "internalType": "string",
          "name": "",
          "type": "string"
        }
      ],
      "stateMutability": "view",
      "type": "function"
    },
    {
      "inputs": [
        {
          "internalType": "uint256",
          "name": "tokenId",
          "type": "uint256"
        }
      ],
      "name": "pickRandomThirdWord",
      "outputs": [
        {
          "internalType": "string",
          "name": "",
          "type": "string"
        }
      ],
      "stateMutability": "view",
      "type": "function"
    },
    {
      "inputs": [
        {
          "internalType": "address",
          "name": "from",
          "type": "address"
        },
        {
          "internalType": "address",
          "name": "to",
          "type": "address"
        },
        {
          "internalType": "uint256",
          "name": "tokenId",
          "type": "uint256"
        }
      ],
      "name": "safeTransferFrom",
      "outputs": [],
      "stateMutability": "nonpayable",
      "type": "function"
    },
    {
      "inputs": [
        {
          "internalType": "address",
          "name": "from",
          "type": "address"
        },
        {
          "internalType": "address",
          "name": "to",
          "type": "address"
        },
        {
          "internalType": "uint256",
          "name": "tokenId",
          "type": "uint256"
        },
        {
          "internalType": "bytes",
          "name": "_data",
          "type": "bytes"
        }
      ],
      "name": "safeTransferFrom",
      "outputs": [],
      "stateMutability": "nonpayable",
      "type": "function"
    },
    {
      "inputs": [
        {
          "internalType": "address",
          "name": "operator",
          "type": "address"
        },
        {
          "internalType": "bool",
          "name": "approved",
          "type": "bool"
        }
      ],
      "name": "setApprovalForAll",
      "outputs": [],
      "stateMutability": "nonpayable",
      "type": "function"
    },
    {
      "inputs": [
        {
          "internalType": "bytes4",
          "name": "interfaceId",
          "type": "bytes4"
        }
      ],
      "name": "supportsInterface",
      "outputs": [
        {
          "internalType": "bool",
          "name": "",
          "type": "bool"
        }
      ],
      "stateMutability": "view",
      "type": "function"
    },
    {
      "inputs": [],
      "name": "symbol",
      "outputs": [
        {
          "internalType": "string",
          "name": "",
          "type": "string"
        }
      ],
      "stateMutability": "view",
      "type": "function"
    },
    {
      "inputs": [
        {
          "internalType": "uint256",
          "name": "tokenId",
          "type": "uint256"
        }
      ],
      "name": "tokenURI",
      "outputs": [
        {
          "internalType": "string",
          "name": "",
          "type": "string"
        }
      ],
      "stateMutability": "view",
      "type": "function"
    },
    {
      "inputs": [
        {
          "internalType": "address",
          "name": "from",
          "type": "address"
        },
        {
          "internalType": "address",
          "name": "to",
          "type": "address"
        },
        {
          "internalType": "uint256",
          "name": "tokenId",
          "type": "uint256"
        }
      ],
      "name": "transferFrom",
      "outputs": [],
      "stateMutability": "nonpayable",
      "type": "function"
    }
  ],
  "bytecode": "0x608060405260405180610100016040528060d3815260200162004cbe60d39139600890805190602001906200003692919062000ccb565b5060405180608001604052806056815260200162004d9160569139600990805190602001906200006892919062000ccb565b50604051806101e001604052806040518060400160405280600581526020017f53696c6c7900000000000000000000000000000000000000000000000000000081525081526020016040518060400160405280600581526020017f46756e6e7900000000000000000000000000000000000000000000000000000081525081526020016040518060400160405280600981526020017f46616e746173746963000000000000000000000000000000000000000000000081525081526020016040518060400160405280600581526020017f4a6f6c6c7900000000000000000000000000000000000000000000000000000081525081526020016040518060400160405280600681526020017f4372616e6b79000000000000000000000000000000000000000000000000000081525081526020016040518060400160405280600681526020017f53706f6f6b79000000000000000000000000000000000000000000000000000081525081526020016040518060400160405280600781526020017f417765736f6d650000000000000000000000000000000000000000000000000081525081526020016040518060400160405280600481526020017f5a616e790000000000000000000000000000000000000000000000000000000081525081526020016040518060400160405280600681526020017f4b6f6f6b6965000000000000000000000000000000000000000000000000000081525081526020016040518060400160405280600881526020017f5465727269626c6500000000000000000000000000000000000000000000000081525081526020016040518060400160405280600481526020017f457069630000000000000000000000000000000000000000000000000000000081525081526020016040518060400160405280600981526020017f48696c6172696f7573000000000000000000000000000000000000000000000081525081526020016040518060400160405280600781526020017f416d617a696e670000000000000000000000000000000000000000000000000081525081526020016040518060400160405280600b81526020017f4d61676e69666963656e7400000000000000000000000000000000000000000081525081526020016040518060400160405280600681526020017f4772756d70790000000000000000000000000000000000000000000000000000815250815250600a90600f620003fa92919062000d5c565b5060405180608001604052806040518060400160405280600681526020017f4b65616e6579000000000000000000000000000000000000000000000000000081525081526020016040518060400160405280600681526020017f547269737379000000000000000000000000000000000000000000000000000081525081526020016040518060400160405280600581526020017f4b696d6d7900000000000000000000000000000000000000000000000000000081525081526020016040518060400160405280600681526020017f4375727469730000000000000000000000000000000000000000000000000000815250815250600b9060046200050292919062000dc3565b50604051806101e001604052806040518060400160405280600581526020017f4b6972627900000000000000000000000000000000000000000000000000000081525081526020016040518060400160405280600781526020017f4461726f6163680000000000000000000000000000000000000000000000000081525081526020016040518060400160405280600e81526020017f4461726b4d6574614b6e6967687400000000000000000000000000000000000081525081526020016040518060400160405280600a81526020017f4b696e674465646564650000000000000000000000000000000000000000000081525081526020016040518060400160405280601081526020017f42616e64616e61576164646c654465650000000000000000000000000000000081525081526020016040518060400160405280600681526020017f4275677a7a79000000000000000000000000000000000000000000000000000081525081526020016040518060400160405280600681526020017f436869726279000000000000000000000000000000000000000000000000000081525081526020016040518060400160405280600a81526020017f4b6e75636b6c654a6f650000000000000000000000000000000000000000000081525081526020016040518060400160405280600881526020017f566976696472696100000000000000000000000000000000000000000000000081525081526020016040518060400160405280600781526020017f4d61676f6c6f720000000000000000000000000000000000000000000000000081525081526020016040518060400160405280600c81526020017f436865664b61776173616b69000000000000000000000000000000000000000081525081526020016040518060400160405280600781526020017f4d61676f6c6f720000000000000000000000000000000000000000000000000081525081526020016040518060400160405280600b81526020017f506f70707942726f734a7200000000000000000000000000000000000000000081525081526020016040518060400160405280600581526020017f506c75676700000000000000000000000000000000000000000000000000000081525081526020016040518060400160405280600681526020017f4368696c6c790000000000000000000000000000000000000000000000000000815250815250600c90600f6200089492919062000d5c565b506040518061014001604052806040518060400160405280600781526020017f236666306135340000000000000000000000000000000000000000000000000081525081526020016040518060400160405280600781526020017f236666343737650000000000000000000000000000000000000000000000000081525081526020016040518060400160405280600781526020017f236666356338610000000000000000000000000000000000000000000000000081525081526020016040518060400160405280600781526020017f236666373039360000000000000000000000000000000000000000000000000081525081526020016040518060400160405280600781526020017f236666383561310000000000000000000000000000000000000000000000000081525081526020016040518060400160405280600781526020017f236666393961630000000000000000000000000000000000000000000000000081525081526020016040518060400160405280600781526020017f236662623162640000000000000000000000000000000000000000000000000081525081526020016040518060400160405280600781526020017f236639626563370000000000000000000000000000000000000000000000000081525081526020016040518060400160405280600781526020017f236637636164300000000000000000000000000000000000000000000000000081525081526020016040518060400160405280600781526020017f2366616530653400000000000000000000000000000000000000000000000000815250815250600d90600a62000aff92919062000e2a565b5034801562000b0d57600080fd5b506040518060400160405280600b81526020017f4b45414e45784b495242590000000000000000000000000000000000000000008152506040518060400160405280600581526020017f4b69726279000000000000000000000000000000000000000000000000000000815250816000908051906020019062000b9292919062000ccb565b50806001908051906020019062000bab92919062000ccb565b50505062000bf96040518060400160405280601881526020017f4b65616e65784b69726279204e465420436f6e7472616374000000000000000081525062000bff60201b620012831760201c565b6200104b565b62000c9f8160405160240162000c16919062000f5f565b6040516020818303038152906040527f41304fac000000000000000000000000000000000000000000000000000000007bffffffffffffffffffffffffffffffffffffffffffffffffffffffff19166020820180517bffffffffffffffffffffffffffffffffffffffffffffffffffffffff838183161783525050505062000ca260201b60201c565b50565b60008151905060006a636f6e736f6c652e6c6f679050602083016000808483855afa5050505050565b82805462000cd99062000fd5565b90600052602060002090601f01602090048101928262000cfd576000855562000d49565b82601f1062000d1857805160ff191683800117855562000d49565b8280016001018555821562000d49579182015b8281111562000d4857825182559160200191906001019062000d2b565b5b50905062000d58919062000e91565b5090565b82805482825590600052602060002090810192821562000db0579160200282015b8281111562000daf57825182908051906020019062000d9e92919062000ccb565b509160200191906001019062000d7d565b5b50905062000dbf919062000eb0565b5090565b82805482825590600052602060002090810192821562000e17579160200282015b8281111562000e1657825182908051906020019062000e0592919062000ccb565b509160200191906001019062000de4565b5b50905062000e26919062000eb0565b5090565b82805482825590600052602060002090810192821562000e7e579160200282015b8281111562000e7d57825182908051906020019062000e6c92919062000ccb565b509160200191906001019062000e4b565b5b50905062000e8d919062000eb0565b5090565b5b8082111562000eac57600081600090555060010162000e92565b5090565b5b8082111562000ed4576000818162000eca919062000ed8565b5060010162000eb1565b5090565b50805462000ee69062000fd5565b6000825580601f1062000efa575062000f1b565b601f01602090049060005260206000209081019062000f1a919062000e91565b5b50565b600062000f2b8262000f83565b62000f37818562000f8e565b935062000f4981856020860162000f9f565b62000f54816200103a565b840191505092915050565b6000602082019050818103600083015262000f7b818462000f1e565b905092915050565b600081519050919050565b600082825260208201905092915050565b60005b8381101562000fbf57808201518184015260208101905062000fa2565b8381111562000fcf576000848401525b50505050565b6000600282049050600182168062000fee57607f821691505b602082108114156200100557620010046200100b565b5b50919050565b7f4e487b7100000000000000000000000000000000000000000000000000000000600052602260045260246000fd5b6000601f19601f8301169050919050565b613c63806200105b6000396000f3fe608060405234801561001057600080fd5b50600436106101215760003560e01c80636352211e116100ad578063b88d4fde11610071578063b88d4fde14610340578063c575757a1461035c578063c87b56dd1461038c578063de9d132f146103bc578063e985e9c5146103c657610121565b80636352211e1461027657806370a08231146102a657806395d89b41146102d6578063a22cb465146102f4578063b187301f1461031057610121565b8063095ea7b3116100f4578063095ea7b3146101c257806323b872dd146101de5780632de38d68146101fa57806342842e0e1461022a578063514dc8c61461024657610121565b806301ffc9a714610126578063060475901461015657806306fdde0314610174578063081812fc14610192575b600080fd5b610140600480360381019061013b919061267b565b6103f6565b60405161014d9190612e29565b60405180910390f35b61015e6104d8565b60405161016b91906130a4565b60405180910390f35b61017c6104e9565b6040516101899190612e44565b60405180910390f35b6101ac60048036038101906101a791906126cd565b61057b565b6040516101b99190612d99565b60405180910390f35b6101dc60048036038101906101d7919061263f565b610600565b005b6101f860048036038101906101f39190612539565b610718565b005b610214600480360381019061020f91906126cd565b610778565b6040516102219190612e44565b60405180910390f35b610244600480360381019061023f9190612539565b610896565b005b610260600480360381019061025b91906126cd565b6108b6565b60405161026d9190612e44565b60405180910390f35b610290600480360381019061028b91906126cd565b6109d4565b60405161029d9190612d99565b60405180910390f35b6102c060048036038101906102bb91906124d4565b610a86565b6040516102cd91906130a4565b60405180910390f35b6102de610b3e565b6040516102eb9190612e44565b60405180910390f35b61030e60048036038101906103099190612603565b610bd0565b005b61032a600480360381019061032591906126cd565b610be6565b6040516103379190612e44565b60405180910390f35b61035a60048036038101906103559190612588565b610d04565b005b610376600480360381019061037191906126cd565b610d66565b6040516103839190612e44565b60405180910390f35b6103a660048036038101906103a191906126cd565b610e84565b6040516103b39190612e44565b60405180910390f35b6103c4610fd6565b005b6103e060048036038101906103db91906124fd565b6111ef565b6040516103ed9190612e29565b60405180910390f35b60007f80ac58cd000000000000000000000000000000000000000000000000000000007bffffffffffffffffffffffffffffffffffffffffffffffffffffffff1916827bffffffffffffffffffffffffffffffffffffffffffffffffffffffff191614806104c157507f5b5e139f000000000000000000000000000000000000000000000000000000007bffffffffffffffffffffffffffffffffffffffffffffffffffffffff1916827bffffffffffffffffffffffffffffffffffffffffffffffffffffffff1916145b806104d157506104d08261131c565b5b9050919050565b60006104e46007611386565b905090565b6060600080546104f890613338565b80601f016020809104026020016040519081016040528092919081815260200182805461052490613338565b80156105715780601f1061054657610100808354040283529160200191610571565b820191906000526020600020905b81548152906001019060200180831161055457829003601f168201915b5050505050905090565b600061058682611394565b6105c5576040517f08c379a00000000000000000000000000000000000000000000000000000000081526004016105bc90613024565b60405180910390fd5b6004600083815260200190815260200160002060009054906101000a900473ffffffffffffffffffffffffffffffffffffffff169050919050565b600061060b826109d4565b90508073ffffffffffffffffffffffffffffffffffffffff168373ffffffffffffffffffffffffffffffffffffffff16141561067c576040517f08c379a000000000000000000000000000000000000000000000000000000000815260040161067390613064565b60405180910390fd5b8073ffffffffffffffffffffffffffffffffffffffff1661069b611400565b73ffffffffffffffffffffffffffffffffffffffff1614806106ca57506106c9816106c4611400565b6111ef565b5b610709576040517f08c379a000000000000000000000000000000000000000000000000000000000815260040161070090612f64565b60405180910390fd5b6107138383611408565b505050565b610729610723611400565b826114c1565b610768576040517f08c379a000000000000000000000000000000000000000000000000000000000815260040161075f90613084565b60405180910390fd5b61077383838361159f565b505050565b606060006107ac61078884611806565b6040516020016107989190612d33565b6040516020818303038152906040526119b3565b9050600a80549050816107bf91906133e4565b9050600a81815481106107fb577f4e487b7100000000000000000000000000000000000000000000000000000000600052603260045260246000fd5b90600052602060002001805461081090613338565b80601f016020809104026020016040519081016040528092919081815260200182805461083c90613338565b80156108895780601f1061085e57610100808354040283529160200191610889565b820191906000526020600020905b81548152906001019060200180831161086c57829003601f168201915b5050505050915050919050565b6108b183838360405180602001604052806000815250610d04565b505050565b606060006108ea6108c684611806565b6040516020016108d69190612d77565b6040516020818303038152906040526119b3565b9050600d80549050816108fd91906133e4565b9050600d8181548110610939577f4e487b7100000000000000000000000000000000000000000000000000000000600052603260045260246000fd5b90600052602060002001805461094e90613338565b80601f016020809104026020016040519081016040528092919081815260200182805461097a90613338565b80156109c75780601f1061099c576101008083540402835291602001916109c7565b820191906000526020600020905b8154815290600101906020018083116109aa57829003601f168201915b5050505050915050919050565b6000806002600084815260200190815260200160002060009054906101000a900473ffffffffffffffffffffffffffffffffffffffff169050600073ffffffffffffffffffffffffffffffffffffffff168173ffffffffffffffffffffffffffffffffffffffff161415610a7d576040517f08c379a0000000000000000000000000000000000000000000000000000000008152600401610a7490612fa4565b60405180910390fd5b80915050919050565b60008073ffffffffffffffffffffffffffffffffffffffff168273ffffffffffffffffffffffffffffffffffffffff161415610af7576040517f08c379a0000000000000000000000000000000000000000000000000000000008152600401610aee90612f84565b60405180910390fd5b600360008373ffffffffffffffffffffffffffffffffffffffff1673ffffffffffffffffffffffffffffffffffffffff168152602001908152602001600020549050919050565b606060018054610b4d90613338565b80601f0160208091040260200160405190810160405280929190818152602001828054610b7990613338565b8015610bc65780601f10610b9b57610100808354040283529160200191610bc6565b820191906000526020600020905b815481529060010190602001808311610ba957829003601f168201915b5050505050905090565b610be2610bdb611400565b83836119e6565b5050565b60606000610c1a610bf684611806565b604051602001610c069190612ccc565b6040516020818303038152906040526119b3565b9050600b8054905081610c2d91906133e4565b9050600b8181548110610c69577f4e487b7100000000000000000000000000000000000000000000000000000000600052603260045260246000fd5b906000526020600020018054610c7e90613338565b80601f0160208091040260200160405190810160405280929190818152602001828054610caa90613338565b8015610cf75780601f10610ccc57610100808354040283529160200191610cf7565b820191906000526020600020905b815481529060010190602001808311610cda57829003601f168201915b5050505050915050919050565b610d15610d0f611400565b836114c1565b610d54576040517f08c379a0000000000000000000000000000000000000000000000000000000008152600401610d4b90613084565b60405180910390fd5b610d6084848484611b53565b50505050565b60606000610d9a610d7684611806565b604051602001610d869190612caa565b6040516020818303038152906040526119b3565b9050600c8054905081610dad91906133e4565b9050600c8181548110610de9577f4e487b7100000000000000000000000000000000000000000000000000000000600052603260045260246000fd5b906000526020600020018054610dfe90613338565b80601f0160208091040260200160405190810160405280929190818152602001828054610e2a90613338565b8015610e775780601f10610e4c57610100808354040283529160200191610e77565b820191906000526020600020905b815481529060010190602001808311610e5a57829003601f168201915b5050505050915050919050565b6060610e8f82611394565b610ece576040517f08c379a0000000000000000000000000000000000000000000000000000000008152600401610ec590613004565b60405180910390fd5b6000600660008481526020019081526020016000208054610eee90613338565b80601f0160208091040260200160405190810160405280929190818152602001828054610f1a90613338565b8015610f675780601f10610f3c57610100808354040283529160200191610f67565b820191906000526020600020905b815481529060010190602001808311610f4a57829003601f168201915b505050505090506000610f78611baf565b9050600081511415610f8e578192505050610fd1565b600082511115610fc3578082604051602001610fab929190612bea565b60405160208183030381529060405292505050610fd1565b610fcc84611bc6565b925050505b919050565b6000610fe26007611386565b90506000610fef82610778565b90506000610ffc83610be6565b9050600061100984610d66565b9050600083838360405160200161102293929190612c0e565b6040516020818303038152906040529050600061103e866108b6565b9050600060088260098560405160200161105b9493929190612c3f565b604051602081830303815290604052905060006110a08461107b84611c6d565b60405160200161108c929190612cee565b604051602081830303815290604052611c6d565b90506000816040516020016110b59190612d55565b60405160208183030381529060405290506111046040518060400160405280601581526020017f0a2d2d2d2d2d2d2d2d2d2d2d2d2d2d2d2d2d2d2d2d0000000000000000000000815250611283565b61112c816040516020016111189190612c88565b604051602081830303815290604052611283565b61116a6040518060400160405280601581526020017f2d2d2d2d2d2d2d2d2d2d2d2d2d2d2d2d2d2d2d2d0a0000000000000000000000815250611283565b611174338a611df7565b61117e8982611e15565b6111886007611e89565b6111ab604051806060016040528060258152602001613bc9602591398a33611e9f565b7febb98688741ffa4c7589bf325de30cf7becb63de567842e1ccdb6cb949fdc82c338a6040516111dc929190612e00565b60405180910390a1505050505050505050565b6000600560008473ffffffffffffffffffffffffffffffffffffffff1673ffffffffffffffffffffffffffffffffffffffff16815260200190815260200160002060008373ffffffffffffffffffffffffffffffffffffffff1673ffffffffffffffffffffffffffffffffffffffff16815260200190815260200160002060009054906101000a900460ff16905092915050565b611319816040516024016112979190612e44565b6040516020818303038152906040527f41304fac000000000000000000000000000000000000000000000000000000007bffffffffffffffffffffffffffffffffffffffffffffffffffffffff19166020820180517bffffffffffffffffffffffffffffffffffffffffffffffffffffffff8381831617835250505050611f3e565b50565b60007f01ffc9a7000000000000000000000000000000000000000000000000000000007bffffffffffffffffffffffffffffffffffffffffffffffffffffffff1916827bffffffffffffffffffffffffffffffffffffffffffffffffffffffff1916149050919050565b600081600001549050919050565b60008073ffffffffffffffffffffffffffffffffffffffff166002600084815260200190815260200160002060009054906101000a900473ffffffffffffffffffffffffffffffffffffffff1673ffffffffffffffffffffffffffffffffffffffff1614159050919050565b600033905090565b816004600083815260200190815260200160002060006101000a81548173ffffffffffffffffffffffffffffffffffffffff021916908373ffffffffffffffffffffffffffffffffffffffff160217905550808273ffffffffffffffffffffffffffffffffffffffff1661147b836109d4565b73ffffffffffffffffffffffffffffffffffffffff167f8c5be1e5ebec7d5bd14f71427d1e84f3dd0314c0f7b2291e5b200ac8c7c3b92560405160405180910390a45050565b60006114cc82611394565b61150b576040517f08c379a000000000000000000000000000000000000000000000000000000000815260040161150290612f44565b60405180910390fd5b6000611516836109d4565b90508073ffffffffffffffffffffffffffffffffffffffff168473ffffffffffffffffffffffffffffffffffffffff16148061158557508373ffffffffffffffffffffffffffffffffffffffff1661156d8461057b565b73ffffffffffffffffffffffffffffffffffffffff16145b80611596575061159581856111ef565b5b91505092915050565b8273ffffffffffffffffffffffffffffffffffffffff166115bf826109d4565b73ffffffffffffffffffffffffffffffffffffffff1614611615576040517f08c379a000000000000000000000000000000000000000000000000000000000815260040161160c90612ec4565b60405180910390fd5b600073ffffffffffffffffffffffffffffffffffffffff168273ffffffffffffffffffffffffffffffffffffffff161415611685576040517f08c379a000000000000000000000000000000000000000000000000000000000815260040161167c90612f04565b60405180910390fd5b611690838383611f67565b61169b600082611408565b6001600360008573ffffffffffffffffffffffffffffffffffffffff1673ffffffffffffffffffffffffffffffffffffffff16815260200190815260200160002060008282546116eb919061324e565b925050819055506001600360008473ffffffffffffffffffffffffffffffffffffffff1673ffffffffffffffffffffffffffffffffffffffff1681526020019081526020016000206000828254611742919061316d565b92505081905550816002600083815260200190815260200160002060006101000a81548173ffffffffffffffffffffffffffffffffffffffff021916908373ffffffffffffffffffffffffffffffffffffffff160217905550808273ffffffffffffffffffffffffffffffffffffffff168473ffffffffffffffffffffffffffffffffffffffff167fddf252ad1be2c89b69c2b068fc378daa952ba7f163c4a11628f55a4df523b3ef60405160405180910390a4611801838383611f6c565b505050565b6060600082141561184e576040518060400160405280600181526020017f300000000000000000000000000000000000000000000000000000000000000081525090506119ae565b600082905060005b600082146118805780806118699061339b565b915050600a8261187991906131c3565b9150611856565b60008167ffffffffffffffff8111156118c2577f4e487b7100000000000000000000000000000000000000000000000000000000600052604160045260246000fd5b6040519080825280601f01601f1916602001820160405280156118f45781602001600182028036833780820191505090505b5090505b600085146119a75760018261190d919061324e565b9150600a8561191c91906133e4565b6030611928919061316d565b60f81b818381518110611964577f4e487b7100000000000000000000000000000000000000000000000000000000600052603260045260246000fd5b60200101907effffffffffffffffffffffffffffffffffffffffffffffffffffffffffffff1916908160001a905350600a856119a091906131c3565b94506118f8565b8093505050505b919050565b6000816040516020016119c69190612bd3565b6040516020818303038152906040528051906020012060001c9050919050565b8173ffffffffffffffffffffffffffffffffffffffff168373ffffffffffffffffffffffffffffffffffffffff161415611a55576040517f08c379a0000000000000000000000000000000000000000000000000000000008152600401611a4c90612f24565b60405180910390fd5b80600560008573ffffffffffffffffffffffffffffffffffffffff1673ffffffffffffffffffffffffffffffffffffffff16815260200190815260200160002060008473ffffffffffffffffffffffffffffffffffffffff1673ffffffffffffffffffffffffffffffffffffffff16815260200190815260200160002060006101000a81548160ff0219169083151502179055508173ffffffffffffffffffffffffffffffffffffffff168373ffffffffffffffffffffffffffffffffffffffff167f17307eab39ab6107e8899845ad3d59bd9653f200f220920489ca2b5937696c3183604051611b469190612e29565b60405180910390a3505050565b611b5e84848461159f565b611b6a84848484611f71565b611ba9576040517f08c379a0000000000000000000000000000000000000000000000000000000008152600401611ba090612ea4565b60405180910390fd5b50505050565b606060405180602001604052806000815250905090565b6060611bd182611394565b611c10576040517f08c379a0000000000000000000000000000000000000000000000000000000008152600401611c0790613044565b60405180910390fd5b6000611c1a611baf565b90506000815111611c3a5760405180602001604052806000815250611c65565b80611c4484611806565b604051602001611c55929190612bea565b6040516020818303038152906040525b915050919050565b6060600082511415611c9057604051806020016040528060008152509050611df2565b6000604051806060016040528060408152602001613bee6040913990506000600360028551611cbf919061316d565b611cc991906131c3565b6004611cd591906131f4565b67ffffffffffffffff811115611d14577f4e487b7100000000000000000000000000000000000000000000000000000000600052604160045260246000fd5b6040519080825280601f01601f191660200182016040528015611d465781602001600182028036833780820191505090505b509050600182016020820185865187015b80821015611db2576003820191508151603f8160121c168501518453600184019350603f81600c1c168501518453600184019350603f8160061c168501518453600184019350603f8116850151845360018401935050611d57565b5050600386510660018114611dce5760028114611de157611de9565b603d6001830353603d6002830353611de9565b603d60018303535b50505080925050505b919050565b611e11828260405180602001604052806000815250612108565b5050565b611e1e82611394565b611e5d576040517f08c379a0000000000000000000000000000000000000000000000000000000008152600401611e5490612fc4565b60405180910390fd5b80600660008481526020019081526020016000209080519060200190611e84929190612360565b505050565b6001816000016000828254019250508190555050565b611f39838383604051602401611eb793929190612e66565b6040516020818303038152906040527fe3849f79000000000000000000000000000000000000000000000000000000007bffffffffffffffffffffffffffffffffffffffffffffffffffffffff19166020820180517bffffffffffffffffffffffffffffffffffffffffffffffffffffffff8381831617835250505050611f3e565b505050565b60008151905060006a636f6e736f6c652e6c6f679050602083016000808483855afa5050505050565b505050565b505050565b6000611f928473ffffffffffffffffffffffffffffffffffffffff16612163565b156120fb578373ffffffffffffffffffffffffffffffffffffffff1663150b7a02611fbb611400565b8786866040518563ffffffff1660e01b8152600401611fdd9493929190612db4565b602060405180830381600087803b158015611ff757600080fd5b505af192505050801561202857506040513d601f19601f8201168201806040525081019061202591906126a4565b60015b6120ab573d8060008114612058576040519150601f19603f3d011682016040523d82523d6000602084013e61205d565b606091505b506000815114156120a3576040517f08c379a000000000000000000000000000000000000000000000000000000000815260040161209a90612ea4565b60405180910390fd5b805181602001fd5b63150b7a0260e01b7bffffffffffffffffffffffffffffffffffffffffffffffffffffffff1916817bffffffffffffffffffffffffffffffffffffffffffffffffffffffff191614915050612100565b600190505b949350505050565b6121128383612186565b61211f6000848484611f71565b61215e576040517f08c379a000000000000000000000000000000000000000000000000000000000815260040161215590612ea4565b60405180910390fd5b505050565b6000808273ffffffffffffffffffffffffffffffffffffffff163b119050919050565b600073ffffffffffffffffffffffffffffffffffffffff168273ffffffffffffffffffffffffffffffffffffffff1614156121f6576040517f08c379a00000000000000000000000000000000000000000000000000000000081526004016121ed90612fe4565b60405180910390fd5b6121ff81611394565b1561223f576040517f08c379a000000000000000000000000000000000000000000000000000000000815260040161223690612ee4565b60405180910390fd5b61224b60008383611f67565b6001600360008473ffffffffffffffffffffffffffffffffffffffff1673ffffffffffffffffffffffffffffffffffffffff168152602001908152602001600020600082825461229b919061316d565b92505081905550816002600083815260200190815260200160002060006101000a81548173ffffffffffffffffffffffffffffffffffffffff021916908373ffffffffffffffffffffffffffffffffffffffff160217905550808273ffffffffffffffffffffffffffffffffffffffff16600073ffffffffffffffffffffffffffffffffffffffff167fddf252ad1be2c89b69c2b068fc378daa952ba7f163c4a11628f55a4df523b3ef60405160405180910390a461235c60008383611f6c565b5050565b82805461236c90613338565b90600052602060002090601f01602090048101928261238e57600085556123d5565b82601f106123a757805160ff19168380011785556123d5565b828001600101855582156123d5579182015b828111156123d45782518255916020019190600101906123b9565b5b5090506123e291906123e6565b5090565b5b808211156123ff5760008160009055506001016123e7565b5090565b6000612416612411846130e4565b6130bf565b90508281526020810184848401111561242e57600080fd5b6124398482856132f6565b509392505050565b60008135905061245081613b6c565b92915050565b60008135905061246581613b83565b92915050565b60008135905061247a81613b9a565b92915050565b60008151905061248f81613b9a565b92915050565b600082601f8301126124a657600080fd5b81356124b6848260208601612403565b91505092915050565b6000813590506124ce81613bb1565b92915050565b6000602082840312156124e657600080fd5b60006124f484828501612441565b91505092915050565b6000806040838503121561251057600080fd5b600061251e85828601612441565b925050602061252f85828601612441565b9150509250929050565b60008060006060848603121561254e57600080fd5b600061255c86828701612441565b935050602061256d86828701612441565b925050604061257e868287016124bf565b9150509250925092565b6000806000806080858703121561259e57600080fd5b60006125ac87828801612441565b94505060206125bd87828801612441565b93505060406125ce878288016124bf565b925050606085013567ffffffffffffffff8111156125eb57600080fd5b6125f787828801612495565b91505092959194509250565b6000806040838503121561261657600080fd5b600061262485828601612441565b925050602061263585828601612456565b9150509250929050565b6000806040838503121561265257600080fd5b600061266085828601612441565b9250506020612671858286016124bf565b9150509250929050565b60006020828403121561268d57600080fd5b600061269b8482850161246b565b91505092915050565b6000602082840312156126b657600080fd5b60006126c484828501612480565b91505092915050565b6000602082840312156126df57600080fd5b60006126ed848285016124bf565b91505092915050565b6126ff81613282565b82525050565b61270e81613294565b82525050565b600061271f8261312a565b6127298185613140565b9350612739818560208601613305565b612742816134d1565b840191505092915050565b600061275882613135565b6127628185613151565b9350612772818560208601613305565b61277b816134d1565b840191505092915050565b600061279182613135565b61279b8185613162565b93506127ab818560208601613305565b80840191505092915050565b600081546127c481613338565b6127ce8186613162565b945060018216600081146127e957600181146127fa5761282d565b60ff1983168652818601935061282d565b61280385613115565b60005b8381101561282557815481890152600182019150602081019050612806565b838801955050505b50505092915050565b6000612843602583613162565b915061284e826134e2565b602582019050919050565b6000612866603283613151565b915061287182613531565b604082019050919050565b6000612889602583613151565b915061289482613580565b604082019050919050565b60006128ac601c83613151565b91506128b7826135cf565b602082019050919050565b60006128cf600a83613162565b91506128da826135f8565b600a82019050919050565b60006128f2605683613162565b91506128fd82613621565b605682019050919050565b6000612915602483613151565b915061292082613696565b604082019050919050565b6000612938601983613151565b9150612943826136e5565b602082019050919050565b600061295b600b83613162565b91506129668261370e565b600b82019050919050565b600061297e602c83613151565b915061298982613737565b604082019050919050565b60006129a1600d83613162565b91506129ac82613786565b600d82019050919050565b60006129c4603883613151565b91506129cf826137af565b604082019050919050565b60006129e7602a83613151565b91506129f2826137fe565b604082019050919050565b6000612a0a602983613151565b9150612a158261384d565b604082019050919050565b6000612a2d602e83613151565b9150612a388261389c565b604082019050919050565b6000612a50600283613162565b9150612a5b826138eb565b600282019050919050565b6000612a73602083613151565b9150612a7e82613914565b602082019050919050565b6000612a96603183613151565b9150612aa18261393d565b604082019050919050565b6000612ab9602c83613151565b9150612ac48261398c565b604082019050919050565b6000612adc602f83613151565b9150612ae7826139db565b604082019050919050565b6000612aff600a83613162565b9150612b0a82613a2a565b600a82019050919050565b6000612b22602183613151565b9150612b2d82613a53565b604082019050919050565b6000612b45600a83613162565b9150612b5082613aa2565b600a82019050919050565b6000612b68601d83613162565b9150612b7382613acb565b601d82019050919050565b6000612b8b603183613151565b9150612b9682613af4565b604082019050919050565b6000612bae600583613162565b9150612bb982613b43565b600582019050919050565b612bcd816132ec565b82525050565b6000612bdf8284612786565b915081905092915050565b6000612bf68285612786565b9150612c028284612786565b91508190509392505050565b6000612c1a8286612786565b9150612c268285612786565b9150612c328284612786565b9150819050949350505050565b6000612c4b82876127b7565b9150612c578286612786565b9150612c6382856127b7565b9150612c6f8284612786565b9150612c7a82612994565b915081905095945050505050565b6000612c9382612836565b9150612c9f8284612786565b915081905092915050565b6000612cb5826128c2565b9150612cc18284612786565b915081905092915050565b6000612cd78261294e565b9150612ce38284612786565b915081905092915050565b6000612cf982612af2565b9150612d058285612786565b9150612d10826128e5565b9150612d1c8284612786565b9150612d2782612a43565b91508190509392505050565b6000612d3e82612b38565b9150612d4a8284612786565b915081905092915050565b6000612d6082612b5b565b9150612d6c8284612786565b915081905092915050565b6000612d8282612ba1565b9150612d8e8284612786565b915081905092915050565b6000602082019050612dae60008301846126f6565b92915050565b6000608082019050612dc960008301876126f6565b612dd660208301866126f6565b612de36040830185612bc4565b8181036060830152612df58184612714565b905095945050505050565b6000604082019050612e1560008301856126f6565b612e226020830184612bc4565b9392505050565b6000602082019050612e3e6000830184612705565b92915050565b60006020820190508181036000830152612e5e818461274d565b905092915050565b60006060820190508181036000830152612e80818661274d565b9050612e8f6020830185612bc4565b612e9c60408301846126f6565b949350505050565b60006020820190508181036000830152612ebd81612859565b9050919050565b60006020820190508181036000830152612edd8161287c565b9050919050565b60006020820190508181036000830152612efd8161289f565b9050919050565b60006020820190508181036000830152612f1d81612908565b9050919050565b60006020820190508181036000830152612f3d8161292b565b9050919050565b60006020820190508181036000830152612f5d81612971565b9050919050565b60006020820190508181036000830152612f7d816129b7565b9050919050565b60006020820190508181036000830152612f9d816129da565b9050919050565b60006020820190508181036000830152612fbd816129fd565b9050919050565b60006020820190508181036000830152612fdd81612a20565b9050919050565b60006020820190508181036000830152612ffd81612a66565b9050919050565b6000602082019050818103600083015261301d81612a89565b9050919050565b6000602082019050818103600083015261303d81612aac565b9050919050565b6000602082019050818103600083015261305d81612acf565b9050919050565b6000602082019050818103600083015261307d81612b15565b9050919050565b6000602082019050818103600083015261309d81612b7e565b9050919050565b60006020820190506130b96000830184612bc4565b92915050565b60006130c96130da565b90506130d5828261336a565b919050565b6000604051905090565b600067ffffffffffffffff8211156130ff576130fe6134a2565b5b613108826134d1565b9050602081019050919050565b60008190508160005260206000209050919050565b600081519050919050565b600081519050919050565b600082825260208201905092915050565b600082825260208201905092915050565b600081905092915050565b6000613178826132ec565b9150613183836132ec565b9250827fffffffffffffffffffffffffffffffffffffffffffffffffffffffffffffffff038211156131b8576131b7613415565b5b828201905092915050565b60006131ce826132ec565b91506131d9836132ec565b9250826131e9576131e8613444565b5b828204905092915050565b60006131ff826132ec565b915061320a836132ec565b9250817fffffffffffffffffffffffffffffffffffffffffffffffffffffffffffffffff048311821515161561324357613242613415565b5b828202905092915050565b6000613259826132ec565b9150613264836132ec565b92508282101561327757613276613415565b5b828203905092915050565b600061328d826132cc565b9050919050565b60008115159050919050565b60007fffffffff0000000000000000000000000000000000000000000000000000000082169050919050565b600073ffffffffffffffffffffffffffffffffffffffff82169050919050565b6000819050919050565b82818337600083830152505050565b60005b83811015613323578082015181840152602081019050613308565b83811115613332576000848401525b50505050565b6000600282049050600182168061335057607f821691505b6020821081141561336457613363613473565b5b50919050565b613373826134d1565b810181811067ffffffffffffffff82111715613392576133916134a2565b5b80604052505050565b60006133a6826132ec565b91507fffffffffffffffffffffffffffffffffffffffffffffffffffffffffffffffff8214156133d9576133d8613415565b5b600182019050919050565b60006133ef826132ec565b91506133fa836132ec565b92508261340a57613409613444565b5b828206905092915050565b7f4e487b7100000000000000000000000000000000000000000000000000000000600052601160045260246000fd5b7f4e487b7100000000000000000000000000000000000000000000000000000000600052601260045260246000fd5b7f4e487b7100000000000000000000000000000000000000000000000000000000600052602260045260246000fd5b7f4e487b7100000000000000000000000000000000000000000000000000000000600052604160045260246000fd5b6000601f19601f8301169050919050565b7f68747470733a2f2f6e6674707265766965772e30786465762e636f6465732f3f60008201527f636f64653d000000000000000000000000000000000000000000000000000000602082015250565b7f4552433732313a207472616e7366657220746f206e6f6e20455243373231526560008201527f63656976657220696d706c656d656e7465720000000000000000000000000000602082015250565b7f4552433732313a207472616e736665722066726f6d20696e636f72726563742060008201527f6f776e6572000000000000000000000000000000000000000000000000000000602082015250565b7f4552433732313a20746f6b656e20616c7265616479206d696e74656400000000600082015250565b7f54484952445f574f524400000000000000000000000000000000000000000000600082015250565b7f222c20226465736372697074696f6e223a20224120636f6c6c656374696f6e2060008201527f6f66204b6972627920776f7264732e222c2022696d616765223a20226461746160208201527f3a696d6167652f7376672b786d6c3b6261736536342c00000000000000000000604082015250565b7f4552433732313a207472616e7366657220746f20746865207a65726f2061646460008201527f7265737300000000000000000000000000000000000000000000000000000000602082015250565b7f4552433732313a20617070726f766520746f2063616c6c657200000000000000600082015250565b7f5345434f4e445f574f5244000000000000000000000000000000000000000000600082015250565b7f4552433732313a206f70657261746f7220717565727920666f72206e6f6e657860008201527f697374656e7420746f6b656e0000000000000000000000000000000000000000602082015250565b7f3c2f746578743e3c2f7376673e00000000000000000000000000000000000000600082015250565b7f4552433732313a20617070726f76652063616c6c6572206973206e6f74206f7760008201527f6e6572206e6f7220617070726f76656420666f7220616c6c0000000000000000602082015250565b7f4552433732313a2062616c616e636520717565727920666f7220746865207a6560008201527f726f206164647265737300000000000000000000000000000000000000000000602082015250565b7f4552433732313a206f776e657220717565727920666f72206e6f6e657869737460008201527f656e7420746f6b656e0000000000000000000000000000000000000000000000602082015250565b7f45524337323155524953746f726167653a2055524920736574206f66206e6f6e60008201527f6578697374656e7420746f6b656e000000000000000000000000000000000000602082015250565b7f227d000000000000000000000000000000000000000000000000000000000000600082015250565b7f4552433732313a206d696e7420746f20746865207a65726f2061646472657373600082015250565b7f45524337323155524953746f726167653a2055524920717565727920666f722060008201527f6e6f6e6578697374656e7420746f6b656e000000000000000000000000000000602082015250565b7f4552433732313a20617070726f76656420717565727920666f72206e6f6e657860008201527f697374656e7420746f6b656e0000000000000000000000000000000000000000602082015250565b7f4552433732314d657461646174613a2055524920717565727920666f72206e6f60008201527f6e6578697374656e7420746f6b656e0000000000000000000000000000000000602082015250565b7f7b226e616d65223a202200000000000000000000000000000000000000000000600082015250565b7f4552433732313a20617070726f76616c20746f2063757272656e74206f776e6560008201527f7200000000000000000000000000000000000000000000000000000000000000602082015250565b7f46495253545f574f524400000000000000000000000000000000000000000000600082015250565b7f646174613a6170706c69636174696f6e2f6a736f6e3b6261736536342c000000600082015250565b7f4552433732313a207472616e736665722063616c6c6572206973206e6f74206f60008201527f776e6572206e6f7220617070726f766564000000000000000000000000000000602082015250565b7f434f4c4f52000000000000000000000000000000000000000000000000000000600082015250565b613b7581613282565b8114613b8057600080fd5b50565b613b8c81613294565b8114613b9757600080fd5b50565b613ba3816132a0565b8114613bae57600080fd5b50565b613bba816132ec565b8114613bc557600080fd5b5056fe416e204e465420772f20494420257320686173206265656e206d696e74656420746f2025734142434445464748494a4b4c4d4e4f505152535455565758595a6162636465666768696a6b6c6d6e6f707172737475767778797a303132333435363738392b2fa26469706673582212205dced62b61912f1d9e8197f446f6da21ff0cd2e47486dd20bef5ad42cededac364736f6c634300080100333c73766720786d6c6e733d27687474703a2f2f7777772e77332e6f72672f323030302f73766727207072657365727665417370656374526174696f3d27784d696e594d696e206d656574272076696577426f783d273020302033353020333530273e3c7374796c653e2e62617365207b2066696c6c3a2077686974653b20666f6e742d66616d696c793a2073657269663b20666f6e742d73697a653a20323470783b207d3c2f7374796c653e3c726563742077696474683d273130302527206865696768743d2731303025272066696c6c3d27272f3e3c7465787420783d273530252720793d273530252720636c6173733d27626173652720646f6d696e616e742d626173656c696e653d276d6964646c652720746578742d616e63686f723d276d6964646c65273e",
  "linkReferences": {},
  "deployedLinkReferences": {}
}